{
  "contractName": "ShippingContract",
  "abi": [
    {
      "anonymous": false,
      "inputs": [
        {
          "indexed": false,
          "internalType": "uint256",
          "name": "id",
          "type": "uint256"
        },
        {
          "indexed": false,
          "internalType": "enum ShippingContract.Etat",
          "name": "",
          "type": "uint8"
        }
      ],
      "name": "Create",
      "type": "event"
    },
    {
      "anonymous": false,
      "inputs": [
        {
          "indexed": false,
          "internalType": "uint256",
          "name": "id",
          "type": "uint256"
        },
        {
          "indexed": false,
          "internalType": "enum ShippingContract.Etat",
          "name": "",
          "type": "uint8"
        }
      ],
      "name": "Delivered",
      "type": "event"
    },
    {
      "anonymous": false,
      "inputs": [
        {
          "indexed": false,
          "internalType": "uint256",
          "name": "id",
          "type": "uint256"
        },
        {
          "indexed": false,
          "internalType": "enum ShippingContract.Etat",
          "name": "",
          "type": "uint8"
        }
      ],
      "name": "Shipped",
      "type": "event"
    },
    {
      "constant": true,
      "inputs": [
        {
          "internalType": "uint256",
          "name": "",
          "type": "uint256"
        }
      ],
      "name": "ships",
      "outputs": [
        {
          "internalType": "uint256",
          "name": "id",
          "type": "uint256"
        },
        {
          "internalType": "enum ShippingContract.Etat",
          "name": "etat",
          "type": "uint8"
        }
      ],
      "payable": false,
      "stateMutability": "view",
      "type": "function"
    },
    {
      "constant": false,
      "inputs": [
        {
          "internalType": "uint256",
          "name": "_id",
          "type": "uint256"
        }
      ],
      "name": "createShip",
      "outputs": [],
      "payable": false,
      "stateMutability": "nonpayable",
      "type": "function"
    },
    {
      "constant": true,
      "inputs": [],
      "name": "getChoix",
      "outputs": [
        {
          "internalType": "enum ShippingContract.Etat",
          "name": "",
          "type": "uint8"
        }
      ],
      "payable": false,
      "stateMutability": "view",
      "type": "function"
    },
    {
      "constant": false,
      "inputs": [
        {
          "internalType": "uint256",
          "name": "_id",
          "type": "uint256"
        }
      ],
      "name": "shipSent",
      "outputs": [],
      "payable": false,
      "stateMutability": "nonpayable",
      "type": "function"
    },
    {
      "constant": false,
      "inputs": [
        {
          "internalType": "uint256",
          "name": "_id",
          "type": "uint256"
        }
      ],
      "name": "shipDelivered",
      "outputs": [],
      "payable": false,
      "stateMutability": "nonpayable",
      "type": "function"
    }
  ],
  "bytecode": "0x608060405234801561001057600080fd5b506103c9806100206000396000f3fe608060405234801561001057600080fd5b50600436106100575760003560e01c806342cd90e31461005c5780634d4e8dfa146100885780636cda7e10146100df578063d81cd8a11461010d578063d82b394f1461013b575b600080fd5b610064610169565b6040518082600281111561007457fe5b60ff16815260200191505060405180910390f35b6100b46004803603602081101561009e57600080fd5b810190808035906020019092919050505061017f565b604051808381526020018260028111156100ca57fe5b60ff1681526020019250505060405180910390f35b61010b600480360360208110156100f557600080fd5b81019080803590602001909291905050506101bd565b005b6101396004803603602081101561012357600080fd5b810190808035906020019092919050505061023e565b005b6101676004803603602081101561015157600080fd5b81019080803590602001909291905050506102bf565b005b60008060009054906101000a900460ff16905090565b6001818154811061018c57fe5b90600052602060002090600202016000915090508060000154908060010160009054906101000a900460ff16905082565b60016000806101000a81548160ff021916908360028111156101db57fe5b02179055507f8a17c0978b995d01697b48df129ab4eb266bf16bbd82300259d75aa23a20b528816000809054906101000a900460ff166040518083815260200182600281111561022757fe5b60ff1681526020019250505060405180910390a150565b60026000806101000a81548160ff0219169083600281111561025c57fe5b02179055507f21f45ea5ef45b74169db01fb87d26e4f830a4304f39388458d1c72f9b09c089d816000809054906101000a900460ff16604051808381526020018260028111156102a857fe5b60ff1681526020019250505060405180910390a150565b60016040518060400160405280838152602001600060028111156102df57fe5b815250908060018154018082558091505090600182039060005260206000209060020201600090919290919091506000820151816000015560208201518160010160006101000a81548160ff0219169083600281111561033b57fe5b02179055505050507f31d7370772ead0004da26ecb22fcc4e255b9d184759ded77bd7acc0a55a986378160006040518083815260200182600281111561037d57fe5b60ff1681526020019250505060405180910390a15056fea265627a7a723158200351abde5781fe757c2ce17764734cd4fba7f4d000985213ee3852e09b7a668164736f6c63430005100032",
  "source": "//SPDX-License-Identifier: UNLICENSED\r\n\r\n//On choisit la version du compilateur\r\npragma solidity >=0.4.22 <0.9.0;\r\n//On déclare notre contrat\r\ncontract ShippingContract {        \r\n\r\n    //On crée une liste qui correspond aux états possible de notre commande\r\n    enum Etat{ Pending, Shipped, Delivered }\r\n    Etat choix;\r\n\r\n    //On crée les evenements possible pour nos commandes\r\n    event Create(uint id, Etat);\r\n    event Shipped(uint id, Etat);\r\n    event Delivered(uint id, Etat);\r\n    //On crée la structure Ship qui correspond à un objet \"commande\". On créera cet objet a chaque élément acheté.\r\n    struct Ship{\r\n        uint id;\r\n        Etat etat;\r\n    }\r\n\r\n    //On crée un tableau pour stocker toutes les commandes (les objets Ship)\r\n    Ship[] public ships;\r\n\r\n    //On crée une commande et on ajoute la commande créée à la liste de toutes les commandes\r\n    function createShip(uint _id) public{\r\n        ships.push(Ship(_id,Etat.Pending));\r\n        emit Create(_id,Etat.Pending); // On déclenche l'event \"Create\" pour signifier que la commande a été créée et est en attente\r\n    }\r\n\r\n    //On récupère la valeur de la variable \"choix\" qui représenté l'état de la commande\r\n    function getChoix() public view returns (Etat) {\r\n      return choix;\r\n   }\r\n\r\n    //Fonction qui change le statut de la commande à \"Shipped\" lorsque la commande est envoyée\r\n    function shipSent(uint _id) public{\r\n        choix = Etat.Shipped;\r\n        emit Shipped(_id,choix); // On déclenche l'event \"Shipped\" pour signifier que la commande a été envoyée\r\n    }\r\n    //Fonction qui change le statut de la commande à \"Delivered\" lorsque la commande est délivrée\r\n    function shipDelivered(uint _id) public{\r\n        choix = Etat.Delivered;\r\n        emit Delivered(_id,choix); // On déclenche l'event \"Delivered\" pour signifier que la commande a été délivrée\r\n    }\r\n\r\n}",
  "sourcePath": "C:/Users/admin/ShippingContract/contracts/ShippingContract.sol",
  "compiler": {
    "name": "solc",
    "version": "0.5.16+commit.9c3226ce.Emscripten.clang"
  },
  "schemaVersion": "3.3.4",
  "updatedAt": "2021-03-26T10:25:41.846Z",
  "devdoc": {
    "methods": {}
  },
  "userdoc": {
    "methods": {}
  }
}